:020000040800F2
:10000000487B0020C1010008E31D00088F1B000889
:10001000E11D000857030008793B000800000000BC
:10002000000000000000000000000000711F000838
:10003000F1030008000000006F1F0008D90100084C
:10004000DB010008DB010008DB010008DB01000820
:10005000DB010008DB010008DB010008DB01000810
:10006000DB010008DB010008DB010008DB01000800
:10007000DB010008DB010008DB010008DB010008F0
:10008000DB010008DB010008DB010008DB010008E0
:10009000DB010008DB010008DB010008DB010008D0
:1000A000DB010008DB010008DB010008DB010008C0
:1000B000DB010008DB010008DB010008DB010008B0
:1000C000DB010008DB010008DB010008DB010008A0
:1000D000DB010008DB010008DB010008DB01000890
:1000E000DB010008DB010008DB010008DB01000880
:1000F000DB010008DB010008DB010008DB01000870
:10010000DB010008DB010008DB010008DB0100085F
:10011000DB010008DB0100084D200008DB010008BE
:10012000DB010008DB010008DB010008DB0100083F
:10013000DB010008DB010008DB010008DB0100082F
:10014000DB010008DB010008DB010008DB0100081F
:10015000DB010008DB010008DB010008DB0100080F
:10016000DB010008DB010008DB010008DB010008FF
:10017000DB010008E51D0008DB01000800000000AD
:10018000DB010008DB010008DB010008DB010008DF
:10019000DB010008DB010008DB010008DB010008CF
:1001A000DB010008DB010008DB010008DFF80CD0F0
:1001B00000F094F800480047093C0008487B002004
:1001C0000648804706480047FEE7FEE7FEE7FEE7F1
:1001D000FEE7FEE7FEE7FEE7FEE7FEE7F91F0008A1
:1001E000AD0100082DE9F05F0546002092469B46D0
:1001F00088460646814640241BE02846414647463D
:10020000224600F05AF853465A46C01A914110D37C
:1002100011461846224600F041F82D1A67EB0108F6
:100220004F4622460120002100F038F817EB000964
:100230004E41201EA4F10104DFDC484631462A4627
:100240004346BDE8F09F40EA01039B0703D009E065
:1002500008C9121F08C0042AFAD203E011F8013BB2
:1002600000F8013B521EF9D27047D2B201E000F80B
:10027000012B491EFBD270470022F6E710B513464A
:100280000A4604461946FFF7F0FF204610BD421CFF
:1002900010F8011B0029FBD1801A7047202A04DBCB
:1002A000203A00FA02F1002070479140C2F1200389
:1002B00020FA03F3194390407047202A04DB203AC8
:1002C00021FA02F00021704721FA02F3D040C2F176
:1002D000200291400843194670470000064C074D24
:1002E00006E0E06840F0010394E807009847103406
:1002F000AC42F6D3FFF75EFFF83C0008183D00085B
:1003000070B58C1810F8015B15F0070301D110F8D7
:10031000013B2A1106D110F8012B03E010F8016B04
:1003200001F8016B5B1EF9D12B0705D40023521E87
:100330000DD401F8013BFAE710F8013BCB1A921CEF
:1003400003E013F8015B01F8015B521EF9D5A142ED
:10035000D8D3002070BDFEE7002070470020704712
:1003600010B500220449054802F08CF904490348FD
:1003700002F082F9002010BD081300206402002062
:10038000080B002010B589B200F01CF8BDE8104041
:100390004FF40051014800F025B900000018024058
:1003A00070B50D4604460146054802F065F904485B
:1003B00002F046F920462968FFF7E4FF002070BDEF
:1003C00064020020094A10B5D2F89022D2F8142213
:1003D0000AB1012010BD0A460146044802F052F954
:1003E000BDE81040014802F0ABB9000064020020F3
:1003F0007047704770B5044600F000F90546601C70
:1004000002D004480078044400F0F8F8401BA042F1
:10041000FAD370BD600000202DE9F84FDFF890B1ED
:1004200000224FF001084FF0030A4FF00F090BF1C3
:10043000040E00BF0B6808FA02F42340A3426ED1F9
:100440004D68022D01D0122D0ED1D50800EB850C80
:10045000DCF820505607F70E09FA07F6B5430E6987
:10046000BE402E43CCF82060066855000F790AFA8A
:1004700005FC07F0030726EA0C06AF403743076088
:100480004E68012E05D0022E03D0112E01D0122E5F
:100490000ED18768CE6827EA0C07AE403E438660DF
:1004A0004668A6430C79C4F3001494403443446076
:1004B000C4688E6824EA0C04AE402643C6604C68CB
:1004C000E4006FD53B4C256845F4804525602468E1
:1004D00022F0030504F480440094374C2E19D6F81A
:1004E000084895072F0F09FA07F5AC43334DA8428A
:1004F00001D100252EE0324DA84201D1012529E08D
:10050000304DA84201D1022524E02F4DA84201D14F
:1005100003251FE02D4DA84202D104251AE041E039
:100520002B4DA84201D1052514E02A4DA84201D146
:1005300006250FE0284DA84201D107250AE0274DE6
:10054000A84201D1082505E0254DA84201D1092581
:1005500000E00A25BD402543C6F80858DBF80040F6
:100560005D464E689C43F60300D51C432C60DEF8C4
:10057000004075464E689C43B60300D51C432C6072
:100580000B4D08352C684E689C43F60200D51C4381
:100590002C60074D0C352C684E689C43B60200D584
:1005A0001C432C60521C102AFFF444AFBDE8F88FA6
:1005B000003C01404438024000300140000002404D
:1005C0000004024000080240000C024000100240FB
:1005D0000014024000180240001C024000200240AB
:1005E00000240240426931EA020200D1090481611B
:1005F00070470AB1816170470904FBE701488068D0
:1006000070470000600000200248816802781144B1
:1006100081607047600000200B4810B5016841F40C
:1006200000710160016841F480610160016841F47A
:1006300080710160032000F089F8002000F006F8C6
:1006400000F03EF8002010BD003C024010B501460D
:1006500088B00022362000F059F8362000F048F823
:1006600013480024016841F010010160006805A9E9
:1006700000F010000690684600F0BEFD00F0E2FDBC
:100680000C494000B0FBF1F10C480B4A491E0260D6
:1006900040F2E732C0E90324C0E9011401F047F851
:1006A00010B1012008B010BD044801F06FF8F9E75F
:1006B0004038024040420F0000100040081B00205C
:1006C0000A4808B5016841F480410160006800F4FF
:1006D000804000900548001F016841F08051016092
:1006E000006800F08050009008BD000044380240CF
:1006F000002809DB00F01F02012191404009800021
:1007000000F1E020C0F8001170470000F0B40E4B7B
:100710001B680C46C3F30223C3F10705042D00D95F
:100720000425191D072901D2002300E0DB1E012644
:1007300006FA05F1491E214099409E40761E16405A
:100740003143F0BC03F019BA0CED00E0064900F0AB
:10075000070208684FF6FF03184040EA0220034AE8
:1007600010430860704700000CED00E00000FA053F
:1007700070470068416200207047F0B50368586A0E
:1007800039B19C6A4FF4827600EB144400204D1E70
:100790000AE040EA024098620FE006EB8007DF596A
:1007A000401C04EB1744C0B2A842F6D344EA02400E
:1007B0004FF4807202EB810158500020F0BDD0F858
:1007C000040402F010BAC1EBC10200EB8202D0F8BF
:1007D0000404926C02F063B9C1EBC10200EB820227
:1007E000D0F80404D2F8082202F0BCB9D0F804040E
:1007F00002F0FBB970B504460B0601F00F00C0EB28
:10080000C00104EB81014FF001024FF0000503D558
:1008100081F83D203C3103E081F8FD5101F5FE7186
:10082000087094F8BC03012808D084F8BC23206821
:1008300002F058FD84F8BC53002070BD022070BD4A
:1008400070B5044601F00F006268904201D90120A2
:1008500070BD0B0601F00F01C1EBC10104EB81017A
:100860004FF001024FF0000503D581F83D203C31E7
:1008700003E081F8FD5101F5FE718D70087094F868
:10088000BC03012808D084F8BC23206802F006FFCE
:1008900084F8BC53002070BD022070BD01F00F0130
:1008A000C1EBC10100EB8100D0F8140270472DE9C3
:1008B000F04104460F0601F00F00C0EBC00104EB4D
:1008C00081014FF001064FF0000503D581F83D602E
:1008D0003C3103E081F8FD5101F5FE7108708A603A
:1008E000CB704A7802B1C880022B00D10D7194F808
:1008F000BC03012809D084F8BC63206802F042FCE4
:10090000284684F8BC53BDE8F0810220FBE770B5AF
:100910000C4601F00F05C5EBC50100EB8101C1F8E4
:100920001032C1F808220023C1F8143281F8FD31D9
:1009300081F8FC51036901F5FE71012B00D10A61B8
:100940002207027C006803D002F000FF002070BD87
:1009500002F0ECFDFAE770B504460D4601F00F0019
:100960006168884201D9012070BD29064FF0000658
:100970004FF0010207D5C0EBC00104EB810181F803
:100980003D203C3107E0C5EBC50104EB810181F856
:10099000FD6101F5FE718A70087094F8BC030128AE
:1009A00007D084F8BC23206802F0A4FE280702D0F8
:1009B00007E0022070BD217C04F57172206802F00E
:1009C00041FE84F8BC63002070BD70B50C4601F098
:1009D0000F05C5EBC50100EB81010B658A6400239F
:1009E0004B65012381F83D3001F83C5F0369012B21
:1009F00000D10A612207027C006803D002F0A6FE43
:100A0000002070BD02F092FDFAE700002DE9FC5FC6
:100A100005680446284602F0C2FF00287ED12068FF
:100A200002F0E9FF002879D0206802F0E4FF800797
:100A300004D52068416901F002014161206802F09B
:100A4000DAFF010304F571704FF0010A4FF0080B53
:100A5000009075D50026206802F0ACFF0746DFF84D
:100A600008946BE0F80767D0F1B2206802F0BBFF92
:100A70008046C00707D005EB4611C1F808AB3146E8
:100A8000204601F0B5F95FEA087032D52068016CA4
:100A900000EB46100191D0F8081B2269012A019A47
:100AA0000FD0F24B9A4214D1090403D54FF4004100
:100AB000C0F8081B204600F0C7FA206901280FD0B3
:100AC00013E04A4505D9090403D54FF40041C0F8A5
:100AD000081B204600F0B8FA01984845EDD804E01C
:100AE00020680121009A02F0ADFD05EB4611C1F826
:100AF00008BB5FEAC86004D505EB46111020C1F8B9
:100B0000080B5FEA88600ED52069012804D12068AF
:100B10000121009A02F096FD202100E0A1E105EB01
:100B20004610C0F8081B5FEA884005D505EB461063
:100B30004FF40051C0F8081B7F08761C002F91D19C
:100B4000206802F058FF40034FF000095FD520688D
:100B500002F029FF0746002657E0F80753D0F1B20C
:100B6000206802F02EFF8046C00726D006F00F0254
:100B70000AFA02F0D5F834288243C5F8342805EB88
:100B80004610C0F808A92069012807D1C6EBC600A5
:100B900004EB8000D0E9112111448164F1B22046B8
:100BA000FFF711FE2069012807D136B9206D20B961
:100BB00020680121009A02F045FD5FEA087003D524
:100BC00005EB4611C1F808B95FEAC86004D505EB2A
:100BD00046111020C1F808095FEA486004D505EB0A
:100BE00046104021C0F808195FEA887004D505EB6B
:100BF00046100221C0F808195FEA086003D53146A3
:100C0000204601F063F97F08761C002FA5D12068EB
:100C100002F0F1FE002811DAD5F8040820F00100F6
:100C2000C5F8040894F8F40301282BD0204600F0FE
:100C3000EFF92068416901F000414161206802F04C
:100C4000DAFE00050BD5D5F80808C00702D020460B
:100C500000F022FA2068416901F4006141612068D6
:100C600002F0C9FEC00461D5D5F8040820F00101E6
:100C7000C5F804181021206802F072FE00214FF61A
:100C80007F321AE084F8F49300212046FFF770FDCC
:100C9000CFE700BF05EB4110C0F80829D0F80039B4
:100CA00023F40013C0F80039C0F8082BD0F8003B3B
:100CB00023F40013C0F8003B491C60688842E9D85F
:100CC000D5F81C0840F00111C5F81C18206B00284D
:100CD00028460DD0D0F8840840F00B00C5F88408F1
:100CE000D5F8440840F00B012846C5F844180DE03B
:100CF000D0F8140842F22B010843C5F81408D5F8BF
:100D0000100840F00B012846C5F81018D0F800086C
:100D100020F4FE61C5F80018217C2068009A02F0DA
:100D200091FC2068416901F480514161206802F022
:100D300062FE800415D5206802F064FA206802F093
:100D400021FEE06000F078FA0146227B206802F084
:100D50008DFE204600F046F92068416901F40051FB
:100D60004161206802F047FEC00634D520688169E1
:100D700021F0100181612F6A07F00F00C0EBC00065
:100D800004EB8006C7F3434006F5FE76022802D046
:100D9000062811D01AE047F6F070074216D0C7F3C4
:100DA0000A1217462846F16802F029FEF068384416
:100DB000F060B069384408E008222846009902F043
:100DC0001EFEB069C7F30A110844B0612168886942
:100DD00040F010008861206802F00DFE000707D582
:100DE000204600F019F92168486900F008004861C0
:100DF000206802F000FEC00208D50021204600F065
:100E000037F82168486900F480104861206802F0D2
:100E1000F2FD800208D50021204600F02DF821685F
:100E2000486900F400104861206802F0E4FD4000C9
:100E300007D52046FFF7C3FC2068416901F08041D7
:100E40004161206802F0D7FD40070AD52068456857
:100E5000680702D52046FFF7C9FC2068416829438E
:100E60004160BDE8FC9F00000A30544F0A31544FE6
:100E7000D0F8040401F00EBFD0F8040401F00CBF58
:100E80002DE9F0418AB0040005D094F8BD0326682E
:100E9000002520B108E001200AB0BDE8F08184F807
:100EA000BC53204600F05EF8032084F8BD03F06BCD
:100EB000C00500D42561206802F032FB04F1100166
:100EC000282288466846FFF7BEF994E80F0002F032
:100ED000B3F90226C8BB0021206802F09EFD002065
:100EE00001270EE0C0EBC00104EB810181F83D70E9
:100EF00001F83C0FC880CD708D60CD60401CC0B241
:100F00004D6161688142EDD8002011E0C0EBC00165
:100F100004EB810181F8FD5181F8FC0181F8FF515A
:100F2000C1F80452C1F80852401CC0B2C1F81052B6
:100F300061688142EAD8282241466846FFF783F972
:100F400094E80F0002F026FA10B184F8BD63A2E71E
:100F500084F8385084F8BD73206802F00FFA00203E
:100F60009AE7000070B500681B4986B0884230D10E
:100F70001A4C0025206840F0020020602068184EBE
:100F800000F0020005904FF40050CDE900056946DD
:100F900030460295FFF740FA4FF44040009002209F
:100FA000CDE901050C20CDE9035069463046FFF735
:100FB00033FA206840F0005020602068002200F0E2
:100FC0000050059011464D20FFF7A0FB4D20FFF784
:100FD0008FFB06B070BD00000000044030380240B6
:100FE0000004024070B50446C068012570B10228B3
:100FF00001D0FFF7FEF92946D4F8040401F09DFE64
:10100000D4F80404BDE8704001F05DBE0025F2E7AD
:10101000D0F8040401F07FBED0F8040401F081BED2
:1010200010B5044690F8BC0301280BD0012084F8C9
:10103000BC0384F83810206802F006FD002084F814
:10104000BC0310BD022010BDD0F8042400F571715E
:10105000104601F07EBE10B50446006894F8BC133B
:10106000012906D0012184F8BC13A16A012902D00C
:1010700008E0022010BDA169012903D0816B41F471
:1010800080318163206802F06DF9206802F052FC23
:10109000002084F8BC0310BD10B50446D0F8040449
:1010A00001F096FE2068D0F8001E41F00101C0F862
:1010B000001E206A002804D00248016841F00601A1
:1010C000016010BD10ED00E02DE9F0470E4605006F
:1010D00065D0DFF81481D8F80000F7B200F00F00F7
:1010E000B04207D288F80070D8F8000000F00F0076
:1010F000B04254D128683D4C810712D5400703D532
:10110000206840F4E05020602878000703D520686C
:1011100040F4604020602068A96820F0F000084397
:1011200020602878C0072DD0304968680839012828
:1011300012D0022813D0032811D00968890700298A
:101140002DDA216821F0030101432160FFF756FAEF
:10115000814641F2883A0EE009688903EFE70968A1
:101160008901ECE7FFF74AFAA0EB0901514502D9E2
:101170000320BDE8F0872068696800F00C00B0EB40
:10118000810FEFD1D8F80010404601F00F01B142B5
:1011900007D90770006800F00F00B04201D00120AD
:1011A000E7E72878400705D52068E96820F4E05093
:1011B000084320602878000706D52068296920F4B4
:1011C000604040EAC100206000F05CF82168084AF5
:1011D000C1F30311515CC840064908600020FFF7C5
:1011E00035FA0020C5E70000003C02400838024004
:1011F000E03C00086C0000200F2202600C4A1368DB
:1012000003F003034360136803F0F0038360136883
:1012100003F4E053C36012684FF4E05303EAD202D0
:1012200002610448006800F00F0008607047000089
:1012300008380240003C0240014800687047000046
:101240006C0000200448054900680968044AC1F39D
:101250008221515CC84070476C0000200838024071
:10126000F03C00080448054900680968044AC1F3D5
:101270004231515CC84070476C0000200838024081
:10128000F03C0008154810B5006810F00C02144836
:1012900013D04110042A0FD0082A0ED10F4C241F5E
:1012A0002268236802F03F025B0207D52068C0F382
:1012B0008810A0FB010106E0084610BD2168C1F3BB
:1012C0008811A1FB00010023FEF78CFF2168C1F308
:1012D0000141491C4900B0FBF1F010BD0838024043
:1012E0000024F4002DE9F84F050076D02878DFF8C7
:1012F000F8B2BE4CC00749D0DBF800105846C1F325
:101300008101012908D00068C0F3810002280AD1B8
:10131000201D0068400206D52068800336D5686825
:101320000028E2D032E06868B0F5803F10D0B0F518
:10133000A02F206810D020F480302060206820F496
:10134000802020606868A0B1FFF758F906460CE0DD
:10135000206840F48030F4E740F480202060F7E714
:10136000FFF74CF9801B642873D820688003F7D5F9
:101370000CE0FFF743F9064605E000BFFFF73EF932
:10138000801B6428F0D820688003F7D42878DFF821
:10139000608280074FF000093ED5DBF80010584608
:1013A00011F00C0F09D00068C0F3810002280BD1A6
:1013B0008D48001F0068400206D42068800715D5BC
:1013C000E868012809D111E0E868B8B10120C8F83F
:1013D0000000FFF713F9064605E002E1FFF70EF9FA
:1013E000801B0228C0D820688007F7D520682969AB
:1013F00020F0F80040EAC10020600DE0C8F800903D
:10140000FFF7FCF8064604E0FFF7F8F8801B022817
:101410001FD820688007F7D42878000722D5724E9D
:10142000744869696C3671B101210160FFF7E6F813
:10143000074604E0FFF7E2F8C01B022809D830682D
:101440008007F7D50EE0C0F80090FFF7D7F8074601
:1014500005E083E0FFF7D2F8C01B02287ED8306891
:101460008007F7D42878400768D5DFF87CA10027EB
:101470000AF1380ADAF80000C0000BD4DAF80010DC
:1014800041F08051CAF80010DAF80000012700F09E
:1014900080500090584E3068C00510D4306840F439
:1014A00080703060FFF7AAF8009005E0FFF7A6F81B
:1014B0000099401A022851D83068C005F6D54A4E26
:1014C000A868683601280FD00528306810D020F0B1
:1014D00001003060306820F004003060A868B8B1C6
:1014E000FFF78CF800900FE0306840F00100F4E75F
:1014F00040F004003060F7E7FFF780F80099411AE8
:1015000041F28830814264D830688007F4D50EE01B
:10151000FFF774F8009007E0FFF770F80099411AA0
:1015200041F28830814254D830688007F4D42FB11A
:10153000DAF8001021F08051CAF80010A869C0B391
:10154000DBF80010C1F3810102294AD00228484685
:1015500007D0C8F86000FFF751F800E039E0054611
:101560003AE04746C8F86000FFF748F8064604E04E
:10157000FFF744F8801B02282BD820688001F7D49D
:10158000D5E907010843A96A1C4A490802EB014151
:101590006A6A41EA8211084395F82C1040EA016119
:1015A0001148001F016001203866FFF727F8054643
:1015B00005E014E0FFF722F8401B022809D8206854
:1015C0008001F7D50BE000BFFFF718F8401B022899
:1015D00002D90320BDE8F88F20688001F4D40020F0
:1015E000F8E70120F6E70000083802400038024022
:1015F00000004742800E4742007000400000FFFF9D
:1016000070B5040005D00025A56294F8510010B112
:1016100006E0012070BD84F85050204600F030F8FC
:10162000022084F851002068016821F04001016027
:10163000D4E901010843D4E9031211430843616965
:101640000843218B01F400710843E1690843216AD2
:101650000843A16A084321680860A069042101EADF
:101660001040616A0843216848602068C16921F41C
:101670000061C1616565012084F85100002070BDE2
:1016800010B586B0044614216846FEF7F5FD1349EF
:101690002068884220D112480021026842F480125A
:1016A0000260006800F4801005900D48143802684C
:1016B00042F020020260006800F0200005904FF424
:1016C000607000900220CDE901010520CDE90310F2
:1016D00069460448FEF7A0FE06B010BD0050014068
:1016E00044380240001402407047704770B590F8CB
:1016F0003C20012A19D0012400F83C4F02224270FC
:1017000050F83C3C5A689D6822F070060A684968A7
:10171000324325F0800529435A6050F83C2C9160F3
:10172000447000210170084670BD022070BD10B5E4
:10173000040003D094F83D0010B107E0012010BD73
:10174000002084F83C00204600F00CF8022084F8C9
:101750003D00211D206800F07FFC012084F83D0041
:10176000002010BD08B500680649884208D1064827
:10177000016841F001010160006800F00100009083
:1017800008BD000000000140443802400168CA68FA
:1017900042F00102CA600068816801F00701062971
:1017A00003D0016841F0010101600020704770B56D
:1017B000044690F83C00012817D0012584F83C50DD
:1017C000022084F83D002068826822F0770222F42B
:1017D0007F4282600868502830D00DDC20284DD030
:1017E00005DC98B310283BD148E0022070BD3028BA
:1017F00044D0402834D139E0602828D0702806D061
:10180000B0F5805F2CD0B0F5005F29D10AE0CB683D
:10181000D1E90121206800F083FC2068816841F053
:10182000770109E0CB68D1E90121206800F078FC5C
:101830002068816841F48041816011E0CA6849688C
:10184000206800F07FFC5021206807E016E0CA689D
:101850004968206800F087FC6021206800F06AFC7D
:1018600084F83D50002084F83C0070BDCA68496887
:10187000206800F067FC40212068EFE722680146FD
:101880001046EBE7704770B50446006801694FF0F9
:101890000005C943890715D4C168C943890711D414
:1018A000E91E0161012020772068806980072046B9
:1018B00002D0FFF7E7FF04E000F098F8204600F0C0
:1018C00096F8257720680169C943490717D4C1688C
:1018D000C943490713D46FF0040101610220207746
:1018E0002068806910F4407F204602D0FFF7CAFFCD
:1018F00004E000F07BF8204600F079F825772068B6
:101900000169C943090716D4C168C943090712D43C
:101910006FF008010161042020772068C06980070A
:10192000204602D0FFF7AEFF04E000F05FF820464B
:1019300000F05DF8257720680169C943C90617D40E
:10194000C168C943C90613D46FF0100101610820B2
:1019500020772068C06910F4407F204602D0FFF74E
:1019600091FF04E000F042F8204600F040F82577AF
:1019700020680169C943C90708D1C168C943C907BB
:1019800004D1891E0161204600F032F82068016907
:10199000C943090609D4C168C943090605D46FF0D3
:1019A000800101612046FFF79FFE20680169C9435D
:1019B000490609D4C168C943490605D46FF04001FE
:1019C0000161204600F01EF820680169C9438906BC
:1019D0000BD4C168C943890607D46FF020010161A7
:1019E0002046BDE87040FFF780BE70BD704770476D
:1019F00000680349884201D1FEF706BE7047000027
:101A000000100040704770B5040004D094F839000D
:101A1000002510B106E0012070BD84F83850204642
:101A200000F022F8242084F839002068C16821F4ED
:101A30000051C160204600F0A9FB2068016921F433
:101A4000904101612068416921F02A0141612068CB
:101A5000C16841F40051C160E563202084F8390079
:101A600084F83A00002070BD10B586B004461421F9
:101A70006846FEF701FC14492068884221D11348CA
:101A8000016841F010010160006800F0100005904D
:101A90000E481438016841F0010101600068694690
:101AA00000F0010005904FF4C0600090022001900A
:101AB0000120029003200390072004900448FEF7C1
:101AC000ABFC06B010BD00000010014044380240DD
:101AD000000002402DE9F843044690F839001F4603
:101AE00016460D46202850D1A5B19EB194F8380075
:101AF00001284AD0012084F838004FF00008C4F8CB
:101B00003C80212084F83900FEF778FDA6848146C8
:101B1000E68426E00120BDE8F883E08C401EE084E6
:101B2000A0684B46B0F5805F4FF000024FF0800197
:101B30002046009703D000F07FFCE8B90DE000F0EC
:101B40007BFCC8B928882168C0F308004860206978
:101B500008B16D1C05E0AD1C03E0216815F8010B10
:101B60004860E08C0028D8D14B4600224021204616
:101B7000009700F061FC08B10320CCE7202084F836
:101B8000390084F838800020C5E70220C3E7FEE76B
:101B9000F0B500230A24302537261F4611E000BF88
:101BA000B4EB107F02D905EB107C01E006EB107C52
:101BB00001F813C001EB430C00015B1C8CF80170B1
:101BC000DBB29342ECD3F0BD2DE9F04186B0142195
:101BD0006846FEF751FB2F480024016841F02001C0
:101BE0000160016801F020010591016841F0800168
:101BF0000160016801F080010591016841F0040174
:101C00000160016801F004010591016841F00101E2
:101C10000160016801F001010591016841F00201D4
:101C20000160016801F002010591016841F0400185
:101C300001600068184F00F040000590002202216A
:101C40003846FEF7D6FCDFF854804FF4C046002239
:101C500031464046FEF7CDFC022000900125CDE93B
:101C60000154694638460394FEF7D6FB07200090DE
:101C70000B48CDE9010469460A48FEF7CDFB009602
:101C8000CDE90154694640460394FEF7C5FB06B012
:101C9000BDE8F081303802400008024000180240E0
:101CA0000000121000000240104810B50E490160FB
:101CB0004FF48271416000218160C1604FF4007275
:101CC0000161C0E905121822C0E907214162816261
:101CD0000A21C162FFF794FC002803D0BDE8104040
:101CE000FEF787BB10BD0000005001408C010020B2
:101CF00010B586B000241648009401940294039411
:101D0000049412490594C0E900148460C46004611D
:101D100044618461FFF70BFD08B1FEF76AFB4FF4E5
:101D20008050009069460A48FFF741FD08B1FEF770
:101D300060FB049404A906480594FFF7D7FC00282B
:101D400001D0FEF756FB06B010BD000000000140B8
:101D5000E40100200C4810B50A4901604FF4E1315C
:101D60004160002181600C22C160C0E904128161E0
:101D7000C161FFF748FE002803D0BDE81040FEF720
:101D800038BB10BD001001402402002010B5012214
:101D90000F49104800F05CFE08B1FEF72AFB0E491F
:101DA0000C4801F03BF808B1FEF723FB0B4909484A
:101DB00000F05AFC08B1FEF71CFB064801F084F85D
:101DC000002803D0BDE81040FEF713BB10BD000093
:101DD00000000020640200204C0100205000002080
:101DE000FEE770470148FEF711BE00000005002025
:101DF0002DE9F041044600680E46016C00EB4615E3
:101E0000D5F8080B276920234FF40042012F08D092
:101E10002C4FB9424FD1010449D500BFC5F8082B5A
:101E20004DE0DFF8A4C05FEA007E04F5717711D5BC
:101E3000614503D9000401D5C5F8082B2046FFF7FA
:101E400003F93A460121206801F0FCFB0820C5F89F
:101E5000080B34E05FEA806E02D5C5F8083B2EE03F
:101E600010F0280F2BD1614501D90004D6D4C6EB60
:101E7000C60004EB8000D5F8102BD0F80412C2F392
:101E800012028A1AC0F81422D0F808221144C0F8AD
:101E90000812F1B22046FEF79FFC86B9D4F8100272
:101EA00068B93A460121206801F0CCFB07E08006C2
:101EB00001D5C5F8083BF1B22046FEF78DFC0020A5
:101EC000BDE8F0810A31544F0A30544F2DE9F84FE4
:101ED0000E46C1EBC60100EB810481460568D4E9DA
:101EE00014103C34884202D90120BDE8F88F081A4A
:101EF000A168814200D20846C01C870805EB46183D
:101F00001BE000BFA0EB010AA068504500D282464A
:101F10000AF10300870899F8100000901FFA8AF36D
:101F2000F2B22846E16801F015FEE16801EB0A0013
:101F3000E060A16901EB0A00A061D8F8180980B23D
:101F4000B84205D3D4E90501814201D20028D9D194
:101F5000D4E90501884208D806F00F010120884025
:101F6000D5F834188143C5F834180020BDE7704710
:101F70007047000030B593B030216846FEF77CF919
:101F800014210CA8FEF778F919480025016841F0E2
:101F900080510160006800F0805011901548016880
:101FA00041F4404101600068022400F44040119077
:101FB00001200090000401908001CDE9064004203A
:101FC0000890A820CDE9090407200B906846FFF788
:101FD00089F90CA90F2081E831004FF4A0500F902F
:101FE000E002109005210CA8FFF76EF813B030BD89
:101FF00040380240007000401048016841F4700110
:1020000001600F48016841F0010101600C4A0021A4
:102010000832116002680B4B1A400260031D0A4A25
:102020001A60026822F48022026005480C300160C8
:1020300002495806803908607047000088ED00E0CA
:1020400000380240FFFFF6FE103000240148FFF781
:102050001ABC0000081B0020F0B50268254C264D74
:10206000264E274F274B4FF0804CA04209D06045A9
:1020700007D0A84205D0B04203D0B84201D0984260
:1020800004D122F0700E4A6842EA0E02A0421BD030
:10209000604519D0A84217D0B04215D0B84213D02D
:1020A000984211D0184DA8420ED0184DA8420BD01E
:1020B000174DA84208D0174DA84205D0164DA8428A
:1020C00002D0164DA84203D122F44075CA682A43B3
:1020D0004D6922F080022A4302608A68C2620A685F
:1020E0008262A04201D0984201D1096901630121B5
:1020F0004161F0BD000001400004004000080040C4
:10210000000C004000040140004001400044014038
:102110000048014000180040001C00400020004022
:1021200010B5846842EA032224F47F440A43224320
:10213000826010BD826822F070020A4342F00701FB
:102140008160704710B5036A046A24F001040462D8
:10215000846924F0F00444EA021423F00A020A43DA
:102160008461026210BD10B5036A23F0100303629C
:102170008369046A23F4704343EA023224F0A00323
:1021800043EA01118261016210BD00002DE9F041B6
:10219000044600680169E26821F44051114301617D
:1021A0002169A068E2690843616911432268084314
:1021B000D16849F20C6399430143D16020684169B9
:1021C000A26921F4407111434161E2696425B2F5CD
:1021D000004F9748974922684FF032083FD08A4213
:1021E00001D082427CD1FFF73DF800EBC00101EB4A
:1021F000001061688900B0FBF1F6FFF733F800EBDF
:10220000C00101EB001061688900B0FBF1F0B0FB88
:10221000F5F06FF01801484306EB800108EB011060
:10222000B0FBF5F000F0F006FFF71CF800EBC00182
:1022300001EB001061688900B0FBF1F0B0FBF5F034
:1022400006EB0016FFF70EF800EBC00101EB0010E3
:1022500061688900B0FBF1F7FFF704F8D2E08A4229
:1022600001D082423DD1FEF7FDFF00EBC00101EB42
:10227000001061684900B0FBF1F0B0FBF5F0060119
:10228000FEF7F0FF00EBC00101EB001061684900B0
:10229000B0FBF1F7FEF7E6FF00EBC00101EB001029
:1022A00061684900B0FBF1F0B0FBF5F06FF0180188
:1022B000484307EB800108EBC100B0FBF5F000F0EC
:1022C000F80006EB4006FEF7CDFF00EBC00101EB86
:1022D000001061684900B0FBF1F7FEF7C3FF3CE076
:1022E00055E0FEF7AFFF00EBC00101EB00106168A5
:1022F0004900B0FBF1F0B0FBF5F00601FEF7A2FFDC
:1023000000EBC00101EB001061684900B0FBF1F780
:10231000FEF798FF00EBC00101EB00106168490077
:10232000B0FBF1F0B0FBF5F06FF01801484307EB9C
:10233000800108EBC100B0FBF5F000F0F80006EBFF
:102340004006FEF77FFF00EBC00101EB0010616863
:102350004900B0FBF1F7FEF775FF00EBC00101EBA0
:10236000001061684900B0FBF1F0B0FBF5F06FF0D0
:102370001801484307EB800108EBC100B0FBF5F002
:1023800000F00700216830448860BDE8F081FEF766
:1023900059FF00EBC00101EB001061688900B0FB40
:1023A000F1F6FEF74FFF00EBC00101EB0010616892
:1023B0008900B0FBF1F0B0FBF5F06FF01801484375
:1023C00006EB800108EB0110B0FBF5F000F0F00621
:1023D000FEF738FF00EBC00101EB001061688900D7
:1023E000B0FBF1F0B0FBF5F006EB0016FEF72AFFAC
:1023F00000EBC00101EB001061688900B0FBF1F750
:10240000FEF720FF00EBC00101EB001061688900BE
:10241000B0FBF1F0B0FBF5F06FF01801484307EBAB
:10242000800108EB0110B0FBF5F000F00F00A9E708
:1024300000140140001001402DE9F0419846174674
:102440000E460446069D1DE0681C1BD02DB1FEF70C
:10245000D5F8A0EB0800A84214D92068C16821F47F
:10246000D071C1602068416921F0010141612020E3
:1024700084F8390084F83A00002084F838000320FA
:10248000BDE8F0812068006836EA000004D0002032
:10249000B842D9D00020F3E70120F9E72DE9F04157
:1024A000D0F89832D0F89022DAB101EB810400EB39
:1024B00084040025E6694EB1C1EBC10703EB870335
:1024C0005B6CB6FBF3F703FB176323B1C2F814523E
:1024D0000020BDE8F08100231A46E56100F081FC90
:1024E000F6E70220F5E770B50546D0F8904200F017
:1024F00087FBC4F80C02D5F8900248B1D5F89412C5
:10250000D4F80402CA6804F503719047002070BD36
:10251000022070BD70B504460026812100F0B6FA95
:10252000002501212046E56200F0B0FA8221204614
:10253000C4F8585100F0AAFA2564D4F8900248B1C2
:10254000D4F8940204F5247440688047206801F0B0
:1025500033FB2560304670BD10B5D0E9A44159B1B8
:1025600094F80002FF2807D08B6894F801222146D6
:102570009847FF2084F80002002010BD0A21018046
:1025800000487047740000204321018000487047D4
:10259000C4000020432101800048704780000020D3
:1025A0004321018000487047080100202DE9F041D7
:1025B00004460026007C4FF40077012590B34023A9
:1025C00002228121204600F069FB4023E5620222BD
:1025D0000121204600F062FB0823032282212046CD
:1025E000C4F8585100F05AFB4FF40770256401F00D
:1025F00041FBC4F89002F8B10546D4F89402006893
:1026000080470020C5F81402C5F81802207CD5F8D0
:10261000042298B140230121204600F04BFB3046B4
:10262000BDE8F081FFE73B4602228121204600F011
:1026300035FB3B46E562CAE70126F0E73B46EAE7A1
:1026400010B5D0F8901269B1027C002AD1F80422AA
:1026500005D04023012100F02DFB002010BD4FF4D8
:102660000073F7E7022010BD02460220002902D0C5
:102670000020C2F894127047D0F89002C0F80412FB
:1026800000207047D0F89002C0F81022C0F808125D
:10269000002070472DE9FC410546D0F890720020DB
:1026A0008DF80000ADF80400064608780C4610F0DE
:1026B000600121D020293BD1E288AAB100066078D0
:1026C00007D5D5F894128B6839469847E288394681
:1026D00026E087F80002A07987F80102E2883946EF
:1026E000284600F06AF828E0D5F8941260780022B5
:1026F0008B682146984720E0607820B10A2809D0ED
:102700000B2815D110E095F87402032810D102228D
:1027100001A905E095F87402032809D10122694650
:10272000284600F064F808E095F87402032804D005
:102730002146284600F036F802263046BDE8FC81E6
:1027400010B5D0F89012A1B1D1F814220AB101202D
:1027500010BD0122C1F81422D1F810220263B1F891
:10276000102293B2D1F80822812100F03AFB002018
:1027700010BD022010BD10B5D0F88C2252689047D1
:10278000002010BD134610B50A46002100F092FA51
:10279000002010BD134610B50A46002100F021FBB1
:1027A000002010BD10B50446802100F0FFFA20463D
:1027B000BDE81040002100F0F9BA10B50323C0F8BD
:1027C0004821C0F86C32C0F84C2113460A4600215B
:1027D00000F070FA002010BD10B505210023C0F8EC
:1027E0006C121A46194600F065FA002010BD10B5AB
:1027F0000223C261C0F86C32026213460A4600210D
:1028000000F0EFFA002010BD10B504210023C0F83D
:102810006C121A46194600F0E4FA002010BDF8B513
:10282000044648880D46010A08294BD2DFE801F02A
:102830004A0409174A4A4048D4F88812207C0A689A
:1028400032E0207C02260028D4F88C0205D0C16A30
:10285000684688470146467041E0816AF8E7C0B2A1
:1028600006282FD2DFE800F003080D12171CD4F859
:102870008812207C4A6817E0D4F88812207C8A6885
:1028800012E0D4F88812207CCA680DE0D4F88812CF
:10289000207C0A6908E0D4F88812207C4A6903E0A9
:1028A000D4F88812207C8A6969469047014616E070
:1028B000207C38B9D4F88C02416B68468847F5E72C
:1028C000207C20B129462046FFF76CFFF8BDD4F8E4
:1028D0008C02016B68468847014607204870BDF8A6
:1028E000000048B1EA8852B1824200D90246ADF8F0
:1028F00000202046FFF77BFFE8880028E6D120462D
:10290000FFF782FFF8BD70B5002300281ED00446F3
:10291000002502E06D1CEDB2641C2678002EF9D172
:10292000022404EB450414801278CA545B1C032271
:10293000CA5400245B1C06E0CA545B1CDAB28C54F7
:10294000521CD3B2401C0278002AF5D170BD0100A0
:102950004FF0000004D0012901D0022901D002204B
:10296000704701207047000010B50A46024903A0D5
:10297000FFF7C9FF004810BD080900204344432069
:10298000436F6E6669670000122008800048704738
:102990002000002010B50A46024903A0FFF7B3FF4C
:1029A000004810BD0809002043444320496E746567
:1029B000726661636500000004200880004870476B
:1029C0001C00002010B50A46024903A0FFF79BFF38
:1029D000004810BD0809002053544D6963726F65AB
:1029E0006C656374726F6E696373000010B50A469C
:1029F000024903A0FFF787FF004810BD0809002027
:102A000053544D3332205669727475616C20436F94
:102A10006D506F727400000010B51A2008800A48CB
:102A20000168001D0468001D0068081809D008220C
:102A30000649FFF7ADF80549042210312046FFF79B
:102A4000A7F80248801E10BD107AFF1F3600002034
:102A500010B580B1D0F88C3213B10023C0F88C329D
:102A600009B1C0F88812012180F87412027000F0D8
:102A7000CBF8002010BD022010BD10B5D0F8980290
:102A8000FDF7DEFEBDE81040FFF761BF10B5D0F8DE
:102A90009802FDF7AFFEBDE81040FFF758BF2DE9E3
:102AA000F0411746044651B1D4F88C0242691AB17C
:102AB00094F87402032851D00220BDE8F081D4F8C4
:102AC0006C32002504F11400022B03D0042B3AD001
:102AD000C3B33CE0D0E903639E4207D9F11AC16059
:102AE0008AB239462046FFF755FE12E08068B0FBF7
:102AF000F3F103FB110199B9984211D3D4F8701284
:102B000088420DD2002211462046FFF743FEC4F84A
:102B1000705200231A461946204600F0CBF816E002
:102B2000D4F88C02C16829B194F87402032801D149
:102B3000204688478021204600F038F92046FFF7DC
:102B40004BFE04E0FFE78021204600F02FF994F8C7
:102B50007802012804D184F8785201E02046904799
:102B60000020AAE770B51546044649B1D4F88C0296
:102B700082691AB194F87402032830D0022070BD23
:102B8000D4F86C1204F5A070032902D005291ED0D8
:102B900027E0D0E903218A420BD9531AC3600846C3
:102BA000834200D303469AB229462046FFF7EAFD46
:102BB00017E0D4F88C02016929B194F87402032853
:102BC00001D1204688472046FFF71EFE09E000207D
:102BD0000146C4F86C02204600F0E8F801E0204607
:102BE0009047002070BD0020704710B5012180F88B
:102BF0007412D0F88C22017952689047002010BDE1
:102C0000D0F89802FDF74ABE10B5017801292AD103
:102C100016490222C1F80404C0F89812144808604A
:102C2000062048600020C1E90320C1E906200862AF
:102C300001224862C1E90B2048630846FEF720F9EB
:102C400008B1FDF7D6FB4FF400710848FDF791FD80
:102C5000802200210548FDF790FD4FF4BA72012152
:102C60000248FDF78AFD002010BD0000000500208D
:102C7000000004400A0601F07F01D0F89802C1EB81
:102C8000C10100EB810002D590F83E00704790F83A
:102C9000FE017047002070470020704710B51C46A9
:102CA0001346D0F898022246FDF701FEBDE8104019
:102CB000FFF74DBE10B5D0F89802FDF728FEBDE82D
:102CC0001040FFF744BE70B5002204464023114671
:102CD000FFF7E4FF40260125C4F850613346002287
:102CE00080212046C4F84451FFF7D8FF6662A561F1
:102CF00084F874520020C4F86C026060C4F87C024E
:102D0000D4F8900228B1D4F88C0200214268204601
:102D10009047002070BD90F8751280F87412002062
:102D2000704710B590F87412032904D1D0F88C12B2
:102D3000C96901B18847002010BD017400207047A7
:102D400010B5D0F89802FEF76BF9BDE81040FFF718
:102D5000FEBD70B5044600F52070054600F04AF847
:102D60000120C4F86C02B4F88602C4F8700294F82A
:102D7000800210F01F010AD001290DD0022910D0C5
:102D800000F08001204600F011F8002070BD2946B7
:102D9000204600F09EF8F8E72946204600F0CAF9E0
:102DA000F3E72946204600F01DF9EEE710B5D0F80C
:102DB0009802FDF7D0FDBDE81040FFF7C8BD10B583
:102DC000D0F89802FEF747F9BDE81040FFF7BFBD05
:102DD00090F8741280F87512042180F874120020A3
:102DE000704710B5D0F89802FDF7EFFDBDE8104030
:102DF000FFF7ADBD0A7802704A7842708A78CB78C6
:102E000002EB032242800A794B7902EB0322828093
:102E10008A79C97902EB0121C180704702460020FE
:102E200011B1C2F88C1270470220704710B5D0F86B
:102E30008C2202241AB11268904700B9002420465F
:102E400010BD000070B50E461E4D897804462970ED
:102E5000012931D894F8740202280BD003280FD02E
:102E600031462046FFF79EFC29782046BDE8704099
:102E7000FFF781BCD9B10320616084F8740209E0D6
:102E800071B16068884212D0C1B22046FFF773FC6E
:102E9000297861602046FFF7C9FF02280CD006E0C0
:102EA000022084F8740220466160FFF764FC20462B
:102EB000BDE87040FFF7A8BC31462046BDE8704031
:102EC000FFF770BC7000002010B5FFF778FF0020FE
:102ED00010BD2DE9F0410A78002612F0600208D0FA
:102EE000202A01D0402A70D1D0F88C2292689047D5
:102EF0006DE04B78002201250A2B66D2DFE803F053
:102F0000405D6557650805652C29FFF788FC5EE084
:102F100004468888D8B9C888C8B94888802816D295
:102F200000F07F0794F87402032810D084F87672BA
:102F300039462046FFF704FF2046FFF765FC1FB126
:102F4000022084F8740242E084F874523FE0204684
:102F50003BE0FFF777FF3AE0CB88012B35D190F8C3
:102F60007432012B04D0022B02D0032B2DD104E0AC
:102F70008260012200F1080116E00122011D13E028
:102F800090F87422012A03D0022A01D0032A1CD10E
:102F9000CA88022A19D1C560D0F87C1209B1032170
:102FA000C160022200F10C01FFF721FC0FE049880B
:102FB00001290CD1C0F87C5211E090F87432012B39
:102FC00008D0022B06D0032B04D0FFF7EBFB3046D2
:102FD000BDE8F08149880129F9D1C0F87C22FFF7CA
:102FE00013FCF4E72DE9F0410A4604461078002767
:102FF000097910F060030AD0202B01D0402B50D16A
:10300000D4F88C0211468368204698478FE0C0F3BD
:103010004110012806D05078D0B301282AD00328C7
:103020003FD107E0D4F88C02114683682046BDE802
:10303000F041184794F87402022802D0032872D194
:103040000AE071B380296ED02046FFF7AFFE8021E1
:103050002046FFF7ABFE6AE0508838B931B18029CD
:1030600004D0D08810B92046FFF7A0FE2046FFF715
:10307000CBFB5CE094F874020228E2D0032852D122
:10308000508898BB4806F1D02046FFF7F6FCEDE7E4
:10309000FFE794F874020026022803D0032842D1E7
:1030A00012E040E009B180293DD1080601F07F001F
:1030B00000EB800004EB800101D5143101E001F543
:1030C000A07102220E602AE0080601F00F0000EB5A
:1030D000800004EB80000AD5806920B301F07F00F6
:1030E00000EB800004EB800514350BE01FE0D0F806
:1030F0004401C0B101F07F0000EB800004EB8005CB
:1031000005F5A07541B1802906D02046FFF7B2FD34
:1031100010B10120286000E02E60022229462046DE
:10312000FFF765FB03E011462046FFF73BFB3846FF
:10313000BDE8F08170B5054608780C4610F06000D7
:1031400003D0202801D0402816D195F87402012818
:1031500003D0022801D003280ED1207901280BD8F2
:10316000D5F88C02826828469047E188014306D151
:103170002846FFF749FB02E02846FFF713FB002033
:1031800070BD000070B50A78012302F00F054E787B
:10319000AB401B4CD0F81C58012E17D045EA034316
:1031A000C0F81C3800EB4210D0F8002B12040BD4EE
:1031B000D0F8002B0B89C978C3F30A031A4344EAF9
:1031C00081410A43C0F8002B002070BD9BB21D4313
:1031D000C0F81C5800EB4210D0F800391B04F3D49F
:1031E000D0F800390D89C978C5F30A0589042B4345
:1031F00041EA82510B432343C0F80039E4E7000061
:1032000000800010D0F800196FF30A01C0F800190F
:10321000D0F80818C1F34101022905D1D0F80019EE
:1032200041F00301C0F80019D0F8041841F480718E
:10323000C0F804180020704770B5044606990A9E2D
:10324000049D0D98012916D0E06840F04000E06030
:10325000204600F02BF8A16B1EB321F48031A1634E
:10326000012D07D1A16841F00601A160A16841F0DC
:103270002001A16070BDA16B21F48031A163E168E0
:10328000094A1140E160E16821F44011E160012840
:1032900003D1E06840F48010E060204600F006F8BA
:1032A000DEE741F48031DAE7BFFFBDFF01220C49C0
:1032B00002E0521C8A420BD80369002BF9DA02693A
:1032C00042F001020261012204E0521C8A4201D94B
:1032D000032070470369DB07F7D100207047000027
:1032E000400D030030B50B784D78012203F00F0438
:1032F00002FA04F4012DD0F83C5817D025EA044412
:10330000C0F83C48D0F81C48097801F00F018A4009
:1033100024EA0241C0F81C1800EB4310D0F8001B4F
:103320000E4A1140C0F8001B002030BDA4B2A543D6
:10333000C0F83C58D0F81C48097801F00F018A40C9
:1033400091B28C43C0F81C4800EB4310D0F8001930
:10335000034A1140C0F80019E6E700000078F3EFD7
:10336000007833EC10B5D0F8041821F00201C0F851
:1033700004180320FDF73EF8002010BD10B5D0F86A
:10338000041841F00201C0F804180320FDF732F8D8
:10339000002010BD2DE9F04F0025DDE90BCB0E46D6
:1033A0000446DDF84090099F2846294604EB800238
:1033B000C2F80411401C0F28F8D3B9F1000F2046C1
:1033C00018D0006820F400122260A06B40F40022A4
:1033D000A26308468846C4F8000ED4F800182046B8
:1033E000C4F80018BCF1010F10D0D0F8001841F05B
:1033F000030110E0806B40F40012A263A06B20F484
:103400000022A263A06B20F48022E1E7D0F800182C
:103410000BB141F00101C0F80018102100F0A0FA32
:1034200000B10125204600F08BFA00B1012540468D
:10343000C4F81088C4F81488C4F81C8800214FF020
:1034400000634FF090484FF67F3A14E004EB4112CE
:10345000D2F800C9BCF1000F06DA11B1C2F8008938
:1034600004E0C4F8003901E0C2F80009C2F810090C
:10347000C2F808A9491C8E42E8D8002115E000BF17
:1034800004EB4112D2F800CBBCF1000F06DA11B107
:10349000C2F8008B04E0C4F8003B01E0C2F8000B66
:1034A000C2F8100BC2F808AB491C8E42E8D8D4F819
:1034B000101821F480722146C4F81028012F08D179
:1034C000134AC1F83028D1F83018124A1143C4F811
:1034D0003018A0616FF0804060611FB9A06940F0B2
:1034E0001000A061A0690C490843A061BBF1000F66
:1034F00003D0A06940F00800A061B9F1010F03D129
:10350000A06906490843A0612846BDE8F08F000085
:10351000000180000300010000383C8004000040EE
:10352000816821F0010181600020704770B50D783D
:103530004E78434CEBB200EB4313012E1FD0D3F86F
:10354000100B6FF31200C3F8100BD3F8100B2040D0
:10355000C3F8100B486908B188684861D3F8100BAC
:1035600040F40020C3F8100BD3F8100B8C68C4F3A0
:1035700012042043C3F8100B012A55D058E04E69BD
:10358000002ED3F8106932D06FF31206C3F8106919
:10359000D3F810692640C3F810694E698C68A642BA
:1035A00000D94C61D3F8104944F40024C3F8104901
:1035B000D3F810494E69C6F312063443C3F81049D4
:1035C000012A22D000EB4512D2F8003943F004431F
:1035D000C2F800394A6932B3D0F83428097801F0CA
:1035E0000F03012199400A43C0F8342826E0264001
:1035F000C3F81069D3F8104944F40024C3F8104903
:10360000D3F810496FF31204D8E7096919B100EB38
:103610004512C2F8141900EB4510D0F8001941F01A
:103620000441C0F8001909E0C86808B1C3F8140BD8
:10363000D3F8000B40F00440C3F8000B002070BD2D
:10364000FFFF07E010B5036C134CA34203D9D0F879
:10365000003B002B1EDB0023C0F8103BD0F8103BD2
:1036600043F40023C0F8103BD0F8103B43F018039C
:10367000C0F8103BD0F8103B43F0C043C0F8103BFB
:10368000012907D1C0F8142BD0F8001B41F080218C
:10369000C0F8001B002010BD0A30544F4A780B7848
:1036A000012A00EB43100BD0D0F8002B22F40012BB
:1036B000C0F8002BC978032914D0022912D017E0D2
:1036C000D0F8002922F40012C0F80029C978032993
:1036D00001D002290CD1D0F8001941F08051C0F876
:1036E000001905E0D0F8001B41F08051C0F8001B24
:1036F000002070470A784B78D1B200EB4110012BC3
:1037000012D0D0F8001B002906DB2AB1D0F8001B2C
:1037100021F08041C0F8001BD0F8001B41F40011DB
:10372000C0F8001B00207047D0F80019002906DB04
:103730002AB1D0F8001921F08041C0F80019D0F862
:10374000001941F40011C0F80019EBE7F8B50C7846
:103750004F78774DE3B26FF0604600EB4313012FD3
:1037600026D0D3F8104B6FF31204C3F8104BD3F8E4
:10377000104B2C40C3F8104B4C69002C74D08D6852
:103780002C44641EB4FBF5F4D3F8105BA4B206EA33
:10379000C4463543C3F8105BD3F8105B8E686643AC
:1037A000C6F312042543C3F8105B012A71D0A6E0CA
:1037B0004F691FB3D3F810796FF31207C3F810796C
:1037C000D3F810792F40C3F810794F698D682F44D2
:1037D0007F1EB7FBF5F506EAC545D3F810693543FA
:1037E000C3F81059D3F810594E69C6F31206354381
:1037F000C3F81059CD78012D10D01BE0D3F8106913
:103800002E40C3F81069D3F8105945F40025C3F8C9
:103810001059D3F810596FF3120509E0D3F8105975
:1038200025F0C045C3F81059D3F8105945F000559C
:10383000C3F81059012A18D000EB4413D3F80049FB
:1038400044F00444C3F80049CC78012C2FD04A69D5
:1038500062B3D0F83428097801F00F0301219940B0
:103860000A43C0F8342860E036E00A691AB100EB78
:103870004413C3F81429C97801290FD1D0F80818C6
:10388000C90500EB4411D1F8002903D442F00052DD
:1038900002E030E042F08052C1F8002900EB441011
:1038A000D0F8001941F00441C0F800193DE0D0F80B
:1038B0000848E405D3F8004902D444F0005401E07C
:1038C00044F08054C3F8004900928A8A93B20A787F
:1038D000C96800F03FF928E0D3F8104B8D68C5F3B4
:1038E00012052C43C3F8104BD3F8104B44F40024BA
:1038F000C3F8104B59E7CA680AB1C3F8142BC9784A
:1039000001290CD1D0F80808C005D3F8000B02D467
:1039100040F0005001E040F08050C3F8000BD3F8B5
:10392000000B40F00440C3F8000B0020F8BD00007D
:10393000FFFF07E0816841F00101816000207047CE
:10394000002110220261054A491C914201D903203D
:1039500070470369DB06F7D400207047400D030071
:103960000022202343EA811101610549521C8A4249
:1039700001D90320704703699B06F7D400207047E4
:10398000400D0300D0F8080810F0060004D002280B
:1039900003D0062801D00F207047022070474069ED
:1039A00000F001007047D0F81818D0F81C08084043
:1039B00080B27047D0F81818D0F81C080840000CE6
:1039C000704710B5D0F81038D0F8342801F00F0443
:1039D00000EB4110E24002F00102D0F8080943EA8E
:1039E000C212104010BD00EB4111D1F8081BD0F8F5
:1039F0001408084070474169806908407047D21C2C
:103A000010B59308002200F5805002E00468521CB3
:103A100010C19A42FAD3084610BD10B5C26822F010
:103A2000C042C260012902D029B1012010BDC16885
:103A300041F0005102E0C16841F08041C160322094
:103A4000FCF7D8FC002010BDD0F8002822F4FE625C
:103A5000C0F80028D0F800284FF4FE6303EA0111F3
:103A60000A43C0F80028002070470000022A3ED117
:103A7000264A274B0A449A4201D20F2138E0254AB0
:103A8000254B0A449A4201D20E2131E0234A244BAD
:103A90000A449A4201D20D212AE0224A224B0A44CA
:103AA0009A4201D20C2123E0204A214B0A449A4237
:103AB00001D20B211CE01F4A1F4B0A449A4201D23B
:103AC0000A2115E01D4A1E4B0A449A420FD31D4A93
:103AD0001D4B0A449A4201D2082109E01B4A1144B5
:103AE0001B4A914201D2072102E0062100E0092190
:103AF000C26822F47052C260C2684FF4705303EA85
:103B000081210A43C260002070470000405327FF14
:103B100000350C00401E1BFF40420F0000DC0BFF75
:103B2000804F1200808CF9FE20D6130060B6E5FEAF
:103B300060E3160000D3CEFE40771B00C05BB3FEEF
:103B4000C091210000CA91FE20753800E05459FE52
:103B5000E09C410010B5029C64B9DB1C9C0800EBA2
:103B60000230002300F5805002E004C902605B1CB3
:103B7000A342FAD3002010BDFEE70907090E002872
:103B800004DB00F1E02080F80014704700F00F0023
:103B900000F1E02080F8141D704702E008C8121FF1
:103BA00008C1002AFAD170477047002001E001C126
:103BB000121F002AFBD1704710B5002821D0114BED
:103BC0000022001F196803E0814203D80A464968B1
:103BD0000029F9D152B11368841A9C4204D10068BB
:103BE00018441060104602E0506000E0186039B1DF
:103BF00002680B1A934203D10B681A4402604968A9
:103C0000416010BD840100201FB5FCF705FDFEF7E3
:103C1000B1F9FDF7D9FFFEF747F8FEF769F8FEF7AF
:103C200099F8FEF7B3F80DA30FCB8DE80F006846A7
:103C3000FCF72DFB82B20A2369460C48FDF74AFFC8
:103C40000B4D4FF480444FF4FA7621462846FCF79A
:103C5000C9FC3046FCF7CEFBF7E7000048656C6C0A
:103C60006F20576F726C64210D0A0000240200203F
:103C700000180240F0B50B30154D20F0070100246C
:103C8000144A0FE003688B420BD38B4205D95E1AAE
:103C900043184768C3E9006700E04368136002C047
:103CA00004E0021D10680028ECD12046002802D153
:103CB000286808B10020F0BD064A07481060074A8E
:103CC000121A22F00702C0E9002401202860D7E779
:103CD00088010020840100204C1B0020483B00206C
:103CE00000000000000000000102030406070809AC
:103CF0000000000001020304183D0008000000203D
:103D00008C01000000030008D83D00088C01002051
:103D1000BC790000AA3B00081389291B08B9041AC2
:103D2000C5041AED0413192A1B0869081A9504170B
:103D300004030904120114020202164083044057CE
:103D4000260201020301031A1A031361031B085D13
:103D5000041A59041AA104192F1182105324F413C0
:103D60000A0632022A401C1C090243571125C032A0
:103D700009041B01020B1305241610010524011070
:103D8000090104240202052406170107058203081D
:103D90001C1009048D320A1D07050102432C07057A
:103DA00081070938442A40072A8107112B09074453
:103DB0000A3B044413AD251B08150413952642083D
:103DC0001A590C139D241B08E704C11A95181A8967
:083DD000041AA1041A7D04810C
:04000005080001AD41
:00000001FF
